{
  "contractName": "SecureVotingSystem",
  "abi": [
    {
      "inputs": [],
      "stateMutability": "nonpayable",
      "type": "constructor"
    },
    {
      "anonymous": false,
      "inputs": [
        {
          "indexed": true,
          "internalType": "uint256",
          "name": "electionId",
          "type": "uint256"
        },
        {
          "indexed": false,
          "internalType": "string",
          "name": "name",
          "type": "string"
        },
        {
          "indexed": false,
          "internalType": "uint256",
          "name": "startTime",
          "type": "uint256"
        },
        {
          "indexed": false,
          "internalType": "uint256",
          "name": "endTime",
          "type": "uint256"
        }
      ],
      "name": "ElectionCreated",
      "type": "event"
    },
    {
      "anonymous": false,
      "inputs": [
        {
          "indexed": true,
          "internalType": "uint256",
          "name": "electionId",
          "type": "uint256"
        },
        {
          "indexed": false,
          "internalType": "uint256",
          "name": "timestamp",
          "type": "uint256"
        }
      ],
      "name": "ElectionEnded",
      "type": "event"
    },
    {
      "anonymous": false,
      "inputs": [
        {
          "indexed": true,
          "internalType": "uint256",
          "name": "electionId",
          "type": "uint256"
        },
        {
          "indexed": false,
          "internalType": "uint256",
          "name": "timestamp",
          "type": "uint256"
        }
      ],
      "name": "ElectionStarted",
      "type": "event"
    },
    {
      "anonymous": false,
      "inputs": [
        {
          "indexed": true,
          "internalType": "address",
          "name": "previousOwner",
          "type": "address"
        },
        {
          "indexed": true,
          "internalType": "address",
          "name": "newOwner",
          "type": "address"
        }
      ],
      "name": "OwnershipTransferred",
      "type": "event"
    },
    {
      "anonymous": false,
      "inputs": [
        {
          "indexed": true,
          "internalType": "string",
          "name": "pollingUnitId",
          "type": "string"
        },
        {
          "indexed": false,
          "internalType": "string",
          "name": "name",
          "type": "string"
        }
      ],
      "name": "PollingUnitRegistered",
      "type": "event"
    },
    {
      "anonymous": false,
      "inputs": [
        {
          "indexed": true,
          "internalType": "address",
          "name": "terminal",
          "type": "address"
        },
        {
          "indexed": false,
          "internalType": "bool",
          "name": "status",
          "type": "bool"
        }
      ],
      "name": "TerminalAuthorized",
      "type": "event"
    },
    {
      "anonymous": false,
      "inputs": [
        {
          "indexed": true,
          "internalType": "bytes32",
          "name": "verificationHash",
          "type": "bytes32"
        },
        {
          "indexed": true,
          "internalType": "string",
          "name": "pollingUnitId",
          "type": "string"
        },
        {
          "indexed": true,
          "internalType": "uint256",
          "name": "electionId",
          "type": "uint256"
        },
        {
          "indexed": false,
          "internalType": "uint256",
          "name": "timestamp",
          "type": "uint256"
        },
        {
          "indexed": false,
          "internalType": "uint256",
          "name": "voteId",
          "type": "uint256"
        }
      ],
      "name": "VoteCast",
      "type": "event"
    },
    {
      "anonymous": false,
      "inputs": [
        {
          "indexed": true,
          "internalType": "uint256",
          "name": "voteId",
          "type": "uint256"
        },
        {
          "indexed": false,
          "internalType": "string",
          "name": "reason",
          "type": "string"
        }
      ],
      "name": "VoteInvalidated",
      "type": "event"
    },
    {
      "inputs": [
        {
          "internalType": "address",
          "name": "",
          "type": "address"
        }
      ],
      "name": "authorizedTerminals",
      "outputs": [
        {
          "internalType": "bool",
          "name": "",
          "type": "bool"
        }
      ],
      "stateMutability": "view",
      "type": "function",
      "constant": true
    },
    {
      "inputs": [],
      "name": "currentElectionId",
      "outputs": [
        {
          "internalType": "uint256",
          "name": "",
          "type": "uint256"
        }
      ],
      "stateMutability": "view",
      "type": "function",
      "constant": true
    },
    {
      "inputs": [
        {
          "internalType": "uint256",
          "name": "",
          "type": "uint256"
        },
        {
          "internalType": "string",
          "name": "",
          "type": "string"
        }
      ],
      "name": "electionResults",
      "outputs": [
        {
          "internalType": "uint256",
          "name": "",
          "type": "uint256"
        }
      ],
      "stateMutability": "view",
      "type": "function",
      "constant": true
    },
    {
      "inputs": [
        {
          "internalType": "uint256",
          "name": "",
          "type": "uint256"
        }
      ],
      "name": "elections",
      "outputs": [
        {
          "internalType": "uint256",
          "name": "id",
          "type": "uint256"
        },
        {
          "internalType": "string",
          "name": "name",
          "type": "string"
        },
        {
          "internalType": "uint256",
          "name": "startTime",
          "type": "uint256"
        },
        {
          "internalType": "uint256",
          "name": "endTime",
          "type": "uint256"
        },
        {
          "internalType": "bool",
          "name": "isActive",
          "type": "bool"
        },
        {
          "internalType": "uint256",
          "name": "totalVotes",
          "type": "uint256"
        }
      ],
      "stateMutability": "view",
      "type": "function",
      "constant": true
    },
    {
      "inputs": [
        {
          "internalType": "bytes32",
          "name": "",
          "type": "bytes32"
        }
      ],
      "name": "hasVoted",
      "outputs": [
        {
          "internalType": "bool",
          "name": "",
          "type": "bool"
        }
      ],
      "stateMutability": "view",
      "type": "function",
      "constant": true
    },
    {
      "inputs": [],
      "name": "owner",
      "outputs": [
        {
          "internalType": "address",
          "name": "",
          "type": "address"
        }
      ],
      "stateMutability": "view",
      "type": "function",
      "constant": true
    },
    {
      "inputs": [
        {
          "internalType": "string",
          "name": "",
          "type": "string"
        }
      ],
      "name": "pollingUnits",
      "outputs": [
        {
          "internalType": "string",
          "name": "id",
          "type": "string"
        },
        {
          "internalType": "string",
          "name": "name",
          "type": "string"
        },
        {
          "internalType": "string",
          "name": "location",
          "type": "string"
        },
        {
          "internalType": "uint256",
          "name": "totalVoters",
          "type": "uint256"
        },
        {
          "internalType": "uint256",
          "name": "votesRecorded",
          "type": "uint256"
        },
        {
          "internalType": "bool",
          "name": "isActive",
          "type": "bool"
        }
      ],
      "stateMutability": "view",
      "type": "function",
      "constant": true
    },
    {
      "inputs": [],
      "name": "renounceOwnership",
      "outputs": [],
      "stateMutability": "nonpayable",
      "type": "function"
    },
    {
      "inputs": [
        {
          "internalType": "address",
          "name": "newOwner",
          "type": "address"
        }
      ],
      "name": "transferOwnership",
      "outputs": [],
      "stateMutability": "nonpayable",
      "type": "function"
    },
    {
      "inputs": [
        {
          "internalType": "bytes32",
          "name": "",
          "type": "bytes32"
        }
      ],
      "name": "verificationHashToVoteId",
      "outputs": [
        {
          "internalType": "uint256",
          "name": "",
          "type": "uint256"
        }
      ],
      "stateMutability": "view",
      "type": "function",
      "constant": true
    },
    {
      "inputs": [
        {
          "internalType": "uint256",
          "name": "",
          "type": "uint256"
        }
      ],
      "name": "votes",
      "outputs": [
        {
          "internalType": "bytes32",
          "name": "verificationHash",
          "type": "bytes32"
        },
        {
          "internalType": "bytes32",
          "name": "encryptedVote",
          "type": "bytes32"
        },
        {
          "internalType": "uint256",
          "name": "timestamp",
          "type": "uint256"
        },
        {
          "internalType": "string",
          "name": "pollingUnitId",
          "type": "string"
        },
        {
          "internalType": "uint256",
          "name": "electionId",
          "type": "uint256"
        },
        {
          "internalType": "bool",
          "name": "isValid",
          "type": "bool"
        }
      ],
      "stateMutability": "view",
      "type": "function",
      "constant": true
    },
    {
      "inputs": [
        {
          "internalType": "string",
          "name": "_name",
          "type": "string"
        },
        {
          "internalType": "uint256",
          "name": "_startTime",
          "type": "uint256"
        },
        {
          "internalType": "uint256",
          "name": "_endTime",
          "type": "uint256"
        },
        {
          "internalType": "string[]",
          "name": "_candidates",
          "type": "string[]"
        }
      ],
      "name": "createElection",
      "outputs": [
        {
          "internalType": "uint256",
          "name": "",
          "type": "uint256"
        }
      ],
      "stateMutability": "nonpayable",
      "type": "function"
    },
    {
      "inputs": [
        {
          "internalType": "uint256",
          "name": "_electionId",
          "type": "uint256"
        }
      ],
      "name": "startElection",
      "outputs": [],
      "stateMutability": "nonpayable",
      "type": "function"
    },
    {
      "inputs": [],
      "name": "endElection",
      "outputs": [],
      "stateMutability": "nonpayable",
      "type": "function"
    },
    {
      "inputs": [
        {
          "internalType": "bytes32",
          "name": "_verificationHash",
          "type": "bytes32"
        },
        {
          "internalType": "bytes32",
          "name": "_encryptedVote",
          "type": "bytes32"
        },
        {
          "internalType": "string",
          "name": "_pollingUnitId",
          "type": "string"
        },
        {
          "internalType": "string",
          "name": "_candidateId",
          "type": "string"
        }
      ],
      "name": "castVote",
      "outputs": [
        {
          "internalType": "uint256",
          "name": "",
          "type": "uint256"
        }
      ],
      "stateMutability": "nonpayable",
      "type": "function"
    },
    {
      "inputs": [
        {
          "internalType": "bytes32",
          "name": "_verificationHash",
          "type": "bytes32"
        }
      ],
      "name": "hasVoterVoted",
      "outputs": [
        {
          "internalType": "bool",
          "name": "",
          "type": "bool"
        }
      ],
      "stateMutability": "view",
      "type": "function",
      "constant": true
    },
    {
      "inputs": [
        {
          "internalType": "string",
          "name": "_pollingUnitId",
          "type": "string"
        },
        {
          "internalType": "string",
          "name": "_name",
          "type": "string"
        },
        {
          "internalType": "string",
          "name": "_location",
          "type": "string"
        },
        {
          "internalType": "uint256",
          "name": "_totalVoters",
          "type": "uint256"
        }
      ],
      "name": "registerPollingUnit",
      "outputs": [],
      "stateMutability": "nonpayable",
      "type": "function"
    },
    {
      "inputs": [
        {
          "internalType": "address",
          "name": "_terminal",
          "type": "address"
        },
        {
          "internalType": "bool",
          "name": "_status",
          "type": "bool"
        }
      ],
      "name": "authorizeTerminal",
      "outputs": [],
      "stateMutability": "nonpayable",
      "type": "function"
    },
    {
      "inputs": [
        {
          "internalType": "address",
          "name": "_terminal",
          "type": "address"
        }
      ],
      "name": "isTerminalAuthorized",
      "outputs": [
        {
          "internalType": "bool",
          "name": "",
          "type": "bool"
        }
      ],
      "stateMutability": "view",
      "type": "function",
      "constant": true
    },
    {
      "inputs": [
        {
          "internalType": "uint256",
          "name": "_voteId",
          "type": "uint256"
        }
      ],
      "name": "getVoteDetails",
      "outputs": [
        {
          "internalType": "bytes32",
          "name": "verificationHash",
          "type": "bytes32"
        },
        {
          "internalType": "bytes32",
          "name": "encryptedVote",
          "type": "bytes32"
        },
        {
          "internalType": "uint256",
          "name": "timestamp",
          "type": "uint256"
        },
        {
          "internalType": "string",
          "name": "pollingUnitId",
          "type": "string"
        },
        {
          "internalType": "uint256",
          "name": "electionId",
          "type": "uint256"
        },
        {
          "internalType": "bool",
          "name": "isValid",
          "type": "bool"
        }
      ],
      "stateMutability": "view",
      "type": "function",
      "constant": true
    },
    {
      "inputs": [
        {
          "internalType": "uint256",
          "name": "_electionId",
          "type": "uint256"
        }
      ],
      "name": "getElectionDetails",
      "outputs": [
        {
          "internalType": "string",
          "name": "name",
          "type": "string"
        },
        {
          "internalType": "uint256",
          "name": "startTime",
          "type": "uint256"
        },
        {
          "internalType": "uint256",
          "name": "endTime",
          "type": "uint256"
        },
        {
          "internalType": "bool",
          "name": "isActive",
          "type": "bool"
        },
        {
          "internalType": "string[]",
          "name": "candidates",
          "type": "string[]"
        },
        {
          "internalType": "uint256",
          "name": "totalVotes",
          "type": "uint256"
        }
      ],
      "stateMutability": "view",
      "type": "function",
      "constant": true
    },
    {
      "inputs": [
        {
          "internalType": "uint256",
          "name": "_electionId",
          "type": "uint256"
        },
        {
          "internalType": "string",
          "name": "_candidateId",
          "type": "string"
        }
      ],
      "name": "getElectionResults",
      "outputs": [
        {
          "internalType": "uint256",
          "name": "",
          "type": "uint256"
        }
      ],
      "stateMutability": "view",
      "type": "function",
      "constant": true
    },
    {
      "inputs": [],
      "name": "getCurrentElectionId",
      "outputs": [
        {
          "internalType": "uint256",
          "name": "",
          "type": "uint256"
        }
      ],
      "stateMutability": "view",
      "type": "function",
      "constant": true
    },
    {
      "inputs": [],
      "name": "getTotalVotes",
      "outputs": [
        {
          "internalType": "uint256",
          "name": "",
          "type": "uint256"
        }
      ],
      "stateMutability": "view",
      "type": "function",
      "constant": true
    },
    {
      "inputs": [],
      "name": "getTotalElections",
      "outputs": [
        {
          "internalType": "uint256",
          "name": "",
          "type": "uint256"
        }
      ],
      "stateMutability": "view",
      "type": "function",
      "constant": true
    },
    {
      "inputs": [
        {
          "internalType": "string",
          "name": "_pollingUnitId",
          "type": "string"
        }
      ],
      "name": "getPollingUnitVoteCount",
      "outputs": [
        {
          "internalType": "uint256",
          "name": "",
          "type": "uint256"
        }
      ],
      "stateMutability": "view",
      "type": "function",
      "constant": true
    },
    {
      "inputs": [],
      "name": "emergencyPause",
      "outputs": [],
      "stateMutability": "nonpayable",
      "type": "function"
    },
    {
      "inputs": [
        {
          "internalType": "uint256",
          "name": "_voteId",
          "type": "uint256"
        },
        {
          "internalType": "string",
          "name": "_reason",
          "type": "string"
        }
      ],
      "name": "invalidateVote",
      "outputs": [],
      "stateMutability": "nonpayable",
      "type": "function"
    },
    {
      "inputs": [
        {
          "internalType": "uint256",
          "name": "_startTime",
          "type": "uint256"
        },
        {
          "internalType": "uint256",
          "name": "_endTime",
          "type": "uint256"
        }
      ],
      "name": "getVotesByTimeRange",
      "outputs": [
        {
          "internalType": "uint256[]",
          "name": "",
          "type": "uint256[]"
        }
      ],
      "stateMutability": "view",
      "type": "function",
      "constant": true
    },
    {
      "inputs": [
        {
          "internalType": "uint256",
          "name": "_electionId",
          "type": "uint256"
        }
      ],
      "name": "getElectionStatistics",
      "outputs": [
        {
          "internalType": "uint256",
          "name": "totalVotes",
          "type": "uint256"
        },
        {
          "internalType": "uint256",
          "name": "validVotes",
          "type": "uint256"
        },
        {
          "internalType": "uint256",
          "name": "invalidVotes",
          "type": "uint256"
        },
        {
          "internalType": "uint256",
          "name": "duration",
          "type": "uint256"
        },
        {
          "internalType": "bool",
          "name": "isCompleted",
          "type": "bool"
        }
      ],
      "stateMutability": "view",
      "type": "function",
      "constant": true
    }
  ],
  "bytecode": "0x608060405234801561001057600080fd5b5061001a33610073565b600180805533600081815260086020908152604091829020805460ff191685179055905192835290917f1a857e9c86aef24412514088ba2a182be80f1f8578455e99e91a32f26f079ac0910160405180910390a26100c3565b600080546001600160a01b038381166001600160a01b0319831681178455604051919092169283917f8be0079c531659141344cd1fd0a4f28419497f9722a3daafe3b4186f6b6457e09190a35050565b612a61806100d26000396000f3fe608060405234801561001057600080fd5b50600436106101da5760003560e01c80638da5cb5b11610104578063d293eb3b116100a2578063f42afb9011610071578063f42afb90146104a5578063f6049924146104b8578063f67c7d06146104dd578063fe2b536b146104f057600080fd5b8063d293eb3b1461042f578063e744cf9114610442578063e8b20ad714610455578063f2fde38b1461049257600080fd5b80639a0e7d66116100de5780639a0e7d66146103e9578063a9392e0c146103f1578063bc279047146103f9578063c91d60ed1461040c57600080fd5b80638da5cb5b146103a55780638dc41911146103c057806398ecf2a0146103e057600080fd5b806359f784681161017c578063710f750c1161014b578063710f750c14610320578063715018a61461034157806373b93c341461034957806373ed31a31461036957600080fd5b806359f78468146102cd5780635df81330146102d55780635e6fef01146102e85780636d32dc4b1461030d57600080fd5b8063374904b2116101b8578063374904b2146102585780634596aee81461027d57806351858e27146102a057806354a1b431146102a857600080fd5b806310fc46b3146101df578063184acbab146101f45780631b4613cb14610235575b600080fd5b6101f26101ed3660046121f2565b6104f8565b005b610220610202366004612255565b6001600160a01b031660009081526008602052604090205460ff1690565b60405190151581526020015b60405180910390f35b610220610243366004612277565b60046020526000908152604090205460ff1681565b61026b610266366004612290565b610786565b60405161022c9695949392919061231d565b61022061028b366004612255565b60086020526000908152604090205460ff1681565b6101f2610962565b6102bb6102b6366004612277565b610991565b60405161022c96959493929190612377565b6101f2610b16565b6102bb6102e3366004612277565b610bf4565b6102fb6102f6366004612277565b610cb7565b60405161022c969594939291906123b6565b6101f261031b366004612277565b610d7b565b61033361032e3660046123f4565b610f94565b60405190815260200161022c565b6101f26114bc565b61035c61035736600461246b565b6114ce565b60405161022c919061248d565b6103336103773660046121f2565b600a602090815260009283526040909220815180830184018051928152908401929093019190912091525481565b6000546040516001600160a01b03909116815260200161022c565b6103336103ce366004612277565b60066020526000908152604090205481565b610333600b5481565b61033361169e565b6103336116ae565b6103336104073660046124d1565b6116b9565b61022061041a366004612277565b60009081526004602052604090205460ff1690565b61033361043d366004612290565b6118fd565b6101f26104503660046125c9565b611928565b610468610463366004612277565b6119ed565b6040805195865260208601949094529284019190915260608301521515608082015260a00161022c565b6101f26104a0366004612255565b611af4565b6101f26104b3366004612605565b611b6d565b6104cb6104c6366004612277565b611d63565b60405161022c96959493929190612695565b6103336104eb3660046121f2565b611f48565b600b54610333565b610500611f7b565b60008211801561051257506002548211155b6105635760405162461bcd60e51b815260206004820152601d60248201527f566f74696e6753797374656d3a20496e76616c696420766f746520494400000060448201526064015b60405180910390fd5b6000828152600560208190526040909120015460ff166105d05760405162461bcd60e51b815260206004820152602260248201527f566f74696e6753797374656d3a20566f746520616c726561647920696e76616c6044820152611a5960f21b606482015260840161055a565b6000828152600560208181526040808420928301805460ff19169055805160c0810182528354815260018401549281019290925260028301549082015260038201805491929160608401919061062590612727565b80601f016020809104026020016040519081016040528092919081815260200182805461065190612727565b801561069e5780601f106106735761010080835404028352916020019161069e565b820191906000526020600020905b81548152906001019060200180831161068157829003601f168201915b505050918352505060048281015460208084019190915260059093015460ff908116151560409384015260808501516000908152600790945291909220909101549192501615610749576080810151600090815260076020819052604082200180549161070a83612777565b919050555060098160600151604051610723919061278e565b908152604051908190036020019020600401805490600061074383612777565b91905055505b827f135777869117aa60ca380541543f5506294b4330cef23c24067a9bd0bb1f0ff48360405161077991906127aa565b60405180910390a2505050565b80516020818301810180516009825292820191909301209152805481906107ac90612727565b80601f01602080910402602001604051908101604052809291908181526020018280546107d890612727565b80156108255780601f106107fa57610100808354040283529160200191610825565b820191906000526020600020905b81548152906001019060200180831161080857829003601f168201915b50505050509080600101805461083a90612727565b80601f016020809104026020016040519081016040528092919081815260200182805461086690612727565b80156108b35780601f10610888576101008083540402835291602001916108b3565b820191906000526020600020905b81548152906001019060200180831161089657829003601f168201915b5050505050908060020180546108c890612727565b80601f01602080910402602001604051908101604052809291908181526020018280546108f490612727565b80156109415780601f1061091657610100808354040283529160200191610941565b820191906000526020600020905b81548152906001019060200180831161092457829003601f168201915b50505050600383015460048401546005909401549293909290915060ff1686565b61096a611f7b565b600b541561098f57600b546000908152600760205260409020600401805460ff191690555b565b600080600060606000806000871180156109ad57506002548711155b6109f95760405162461bcd60e51b815260206004820152601d60248201527f566f74696e6753797374656d3a20496e76616c696420766f7465204944000000604482015260640161055a565b6000600560008981526020019081526020016000206040518060c0016040529081600082015481526020016001820154815260200160028201548152602001600382018054610a4790612727565b80601f0160208091040260200160405190810160405280929190818152602001828054610a7390612727565b8015610ac05780601f10610a9557610100808354040283529160200191610ac0565b820191906000526020600020905b815481529060010190602001808311610aa357829003601f168201915b5050509183525050600482015460208083019190915260059092015460ff161515604091820152825191830151908301516060840151608085015160a090950151939d929c50909a509850919650945092505050565b610b1e611f7b565b6000600b5411610b705760405162461bcd60e51b815260206004820181905260248201527f566f74696e6753797374656d3a204e6f2061637469766520656c656374696f6e604482015260640161055a565b600b546000908152600760205260409020600481015460ff16610ba55760405162461bcd60e51b815260040161055a906127bd565b60048101805460ff19169055600b8054600090915560405142815281907f32e2c12037f9600b91a766ce53eab6909f3bdb865851cd9a8c7fafbdf249a9ce906020015b60405180910390a25050565b600560205260009081526040902080546001820154600283015460038401805493949293919291610c2490612727565b80601f0160208091040260200160405190810160405280929190818152602001828054610c5090612727565b8015610c9d5780601f10610c7257610100808354040283529160200191610c9d565b820191906000526020600020905b815481529060010190602001808311610c8057829003601f168201915b50505050600483015460059093015491929160ff16905086565b60076020526000908152604090208054600182018054919291610cd990612727565b80601f0160208091040260200160405190810160405280929190818152602001828054610d0590612727565b8015610d525780601f10610d2757610100808354040283529160200191610d52565b820191906000526020600020905b815481529060010190602001808311610d3557829003601f168201915b5050506002840154600385015460048601546007909601549495919490935060ff909116915086565b610d83611f7b565b600081118015610d9557506003548111155b610db15760405162461bcd60e51b815260040161055a906127fe565b600b5415610e125760405162461bcd60e51b815260206004820152602860248201527f566f74696e6753797374656d3a20416e6f7468657220656c656374696f6e2069604482015267732061637469766560c01b606482015260840161055a565b6000818152600760205260409020600481015460ff1615610e845760405162461bcd60e51b815260206004820152602660248201527f566f74696e6753797374656d3a20456c656374696f6e20616c726561647920736044820152651d185c9d195960d21b606482015260840161055a565b8060020154421015610eee5760405162461bcd60e51b815260206004820152602d60248201527f566f74696e6753797374656d3a20456c656374696f6e2073746172742074696d60448201526c19481b9bdd081c995858da1959609a1b606482015260840161055a565b80600301544210610f4c5760405162461bcd60e51b815260206004820152602260248201527f566f74696e6753797374656d3a20456c656374696f6e20686173206578706972604482015261195960f21b606482015260840161055a565b60048101805460ff19166001179055600b82905560405182907fff6a30dd22f5e8b783044c7d895a6e8592b55c56f139978d44dc39daf596731f90610be89042815260200190565b3360009081526008602052604081205460ff16610fff5760405162461bcd60e51b815260206004820152602360248201527f566f74696e6753797374656d3a20556e617574686f72697a6564207465726d696044820152621b985b60ea1b606482015260840161055a565b6000600b54116110515760405162461bcd60e51b815260206004820181905260248201527f566f74696e6753797374656d3a204e6f2061637469766520656c656374696f6e604482015260640161055a565b600b546000908152600760205260409020600481015460ff166110865760405162461bcd60e51b815260040161055a906127bd565b8060020154421015801561109e575080600301544211155b6110f85760405162461bcd60e51b815260206004820152602560248201527f566f74696e6753797374656d3a20456c656374696f6e206e6f7420696e20736560448201526439b9b4b7b760d91b606482015260840161055a565b83600981604051611109919061278e565b9081526040519081900360200190206005015460ff166111765760405162461bcd60e51b815260206004820152602260248201527f566f74696e6753797374656d3a20496e76616c696420706f6c6c696e6720756e6044820152611a5d60f21b606482015260840161055a565b61117e611fd5565b60008781526004602052604090205460ff16156111f15760405162461bcd60e51b815260206004820152602b60248201527f566f74696e6753797374656d3a20566f7465722068617320616c72656164792060448201526a63617374206120766f746560a81b606482015260840161055a565b600b54600090815260076020526040812090805b600583015481101561126d57868051906020012083600501828154811061122e5761122e61283f565b906000526020600020016040516112459190612855565b60405180910390200361125b576001915061126d565b80611265816128cb565b915050611205565b50806112bb5760405162461bcd60e51b815260206004820152601f60248201527f566f74696e6753797374656d3a20496e76616c69642063616e64696461746500604482015260640161055a565b6000898152600460205260409020805460ff191660011790556112e2600280546001019055565b60006112ed60025490565b6040805160c0810182528c815260208082018d815242838501908152606084018e8152600b546080860152600160a0860181905260008881526005909552959093208451815591519482019490945592516002840155519293509160038201906113579082612933565b506080820151600482015560a0909101516005909101805460ff191691151591909117905560008a8152600660208190526040918290208390559051908401906113a290899061278e565b90815260405190819003602001902080549060006113bf836128cb565b90915550506007830180549060006113d6836128cb565b9091555050600b546000908152600a60205260409081902090516113fb90899061278e565b9081526040519081900360200190208054906000611418836128cb565b919050555060098860405161142d919061278e565b908152604051908190036020019020600401805490600061144d836128cb565b9190505550600b5488604051611463919061278e565b6040805191829003822042835260208301859052918d917fdf9dbd71c12ac0ec889f1cad7d0e15a26cc5765f926d01d606c0eb683a161d7d910160405180910390a4945050506114b260018055565b5050949350505050565b6114c4611f7b565b61098f600061202e565b6060828210156115205760405162461bcd60e51b815260206004820181905260248201527f566f74696e6753797374656d3a20496e76616c69642074696d652072616e6765604482015260640161055a565b600061152b60025490565b905060008167ffffffffffffffff8111156115485761154861213b565b604051908082528060200260200182016040528015611571578160200160208202803683370190505b509050600060015b8381116115f55760008181526005602052604090206002015487118015906115b257506000818152600560205260409020600201548610155b156115e357808383815181106115ca576115ca61283f565b6020908102919091010152816115df816128cb565b9250505b806115ed816128cb565b915050611579565b5060008167ffffffffffffffff8111156116115761161161213b565b60405190808252806020026020018201604052801561163a578160200160208202803683370190505b50905060005b828110156116915783818151811061165a5761165a61283f565b60200260200101518282815181106116745761167461283f565b602090810291909101015280611689816128cb565b915050611640565b5093505050505b92915050565b60006116a960025490565b905090565b60006116a960035490565b60006116c3611f7b565b4284116117255760405162461bcd60e51b815260206004820152602a60248201527f566f74696e6753797374656d3a2053746172742074696d65206d75737420626560448201526920696e2066757475726560b01b606482015260840161055a565b83831161178c5760405162461bcd60e51b815260206004820152602f60248201527f566f74696e6753797374656d3a20456e642074696d65206d757374206265206160448201526e667465722073746172742074696d6560881b606482015260840161055a565b60008251116117e85760405162461bcd60e51b815260206004820152602260248201527f566f74696e6753797374656d3a204d75737420686176652063616e6469646174604482015261657360f01b606482015260840161055a565b6117f6600380546001019055565b600061180160035490565b6000818152600760205260409020818155909150600181016118238882612933565b50600281018690556003810185905560048101805460ff191690558351611853906005830190602087019061207e565b506000600782018190555b84518110156118b65760008260060186838151811061187f5761187f61283f565b6020026020010151604051611894919061278e565b90815260405190819003602001902055806118ae816128cb565b91505061185e565b50817fe7a0aae5d733e07e246dea86213a1ac1b0aa8554bde889bb75c12752f44e53d98888886040516118eb939291906129f3565b60405180910390a25095945050505050565b600060098260405161190f919061278e565b9081526020016040518091039020600401549050919050565b611930611f7b565b6001600160a01b0382166119955760405162461bcd60e51b815260206004820152602660248201527f566f74696e6753797374656d3a20496e76616c6964207465726d696e616c206160448201526564647265737360d01b606482015260840161055a565b6001600160a01b038216600081815260086020908152604091829020805460ff191685151590811790915591519182527f1a857e9c86aef24412514088ba2a182be80f1f8578455e99e91a32f26f079ac09101610be8565b60008060008060008086118015611a0657506003548611155b611a225760405162461bcd60e51b815260040161055a906127fe565b600086815260076020819052604082209081015490918060015b6002548111611aab576000818152600560205260409020600401548b9003611a99576000818152600560208190526040909120015460ff1615611a8b5782611a83816128cb565b935050611a99565b81611a95816128cb565b9250505b80611aa3816128cb565b915050611a3c565b50600084600201548560030154611ac29190612a18565b600486015490915060009060ff16158015611ae05750856003015442115b949c939b5091995097509195509350505050565b611afc611f7b565b6001600160a01b038116611b615760405162461bcd60e51b815260206004820152602660248201527f4f776e61626c653a206e6577206f776e657220697320746865207a65726f206160448201526564647265737360d01b606482015260840161055a565b611b6a8161202e565b50565b611b75611f7b565b6000845111611bd45760405162461bcd60e51b815260206004820152602560248201527f566f74696e6753797374656d3a20496e76616c696420706f6c6c696e6720756e6044820152641a5d08125160da1b606482015260840161055a565b600984604051611be4919061278e565b9081526040519081900360200190206005015460ff1615611c595760405162461bcd60e51b815260206004820152602960248201527f566f74696e6753797374656d3a20506f6c6c696e6720756e697420616c72656160448201526864792065786973747360b81b606482015260840161055a565b6040518060c001604052808581526020018481526020018381526020018281526020016000815260200160011515815250600985604051611c9a919061278e565b90815260405190819003602001902081518190611cb79082612933565b5060208201516001820190611ccc9082612933565b5060408201516002820190611ce19082612933565b50606082015160038201556080820151600482015560a0909101516005909101805460ff1916911515919091179055604051611d1e90859061278e565b60405180910390207fb4fbf858aaf58f916976b6c4668154c1e069b7abc44972f310db304359cf28ce84604051611d5591906127aa565b60405180910390a250505050565b60606000806000606060008087118015611d7f57506003548711155b611d9b5760405162461bcd60e51b815260040161055a906127fe565b6000878152600760208190526040909120600281015460038201546004830154938301546001840180549495909460ff9091169160058701918690611ddf90612727565b80601f0160208091040260200160405190810160405280929190818152602001828054611e0b90612727565b8015611e585780601f10611e2d57610100808354040283529160200191611e58565b820191906000526020600020905b815481529060010190602001808311611e3b57829003601f168201915b5050505050955081805480602002602001604051908101604052809291908181526020016000905b82821015611f2c578382906000526020600020018054611e9f90612727565b80601f0160208091040260200160405190810160405280929190818152602001828054611ecb90612727565b8015611f185780601f10611eed57610100808354040283529160200191611f18565b820191906000526020600020905b815481529060010190602001808311611efb57829003601f168201915b505050505081526020019060010190611e80565b5050505091509650965096509650965096505091939550919395565b6000828152600a60205260408082209051611f6490849061278e565b908152602001604051809103902054905092915050565b6000546001600160a01b0316331461098f5760405162461bcd60e51b815260206004820181905260248201527f4f776e61626c653a2063616c6c6572206973206e6f7420746865206f776e6572604482015260640161055a565b6002600154036120275760405162461bcd60e51b815260206004820152601f60248201527f5265656e7472616e637947756172643a207265656e7472616e742063616c6c00604482015260640161055a565b6002600155565b600080546001600160a01b038381166001600160a01b0319831681178455604051919092169283917f8be0079c531659141344cd1fd0a4f28419497f9722a3daafe3b4186f6b6457e09190a35050565b8280548282559060005260206000209081019282156120c4579160200282015b828111156120c457825182906120b49082612933565b509160200191906001019061209e565b506120d09291506120d4565b5090565b808211156120d05760006120e882826120f1565b506001016120d4565b5080546120fd90612727565b6000825580601f1061210d575050565b601f016020900490600052602060002090810190611b6a91905b808211156120d05760008155600101612127565b634e487b7160e01b600052604160045260246000fd5b604051601f8201601f1916810167ffffffffffffffff8111828210171561217a5761217a61213b565b604052919050565b600082601f83011261219357600080fd5b813567ffffffffffffffff8111156121ad576121ad61213b565b6121c0601f8201601f1916602001612151565b8181528460208386010111156121d557600080fd5b816020850160208301376000918101602001919091529392505050565b6000806040838503121561220557600080fd5b82359150602083013567ffffffffffffffff81111561222357600080fd5b61222f85828601612182565b9150509250929050565b80356001600160a01b038116811461225057600080fd5b919050565b60006020828403121561226757600080fd5b61227082612239565b9392505050565b60006020828403121561228957600080fd5b5035919050565b6000602082840312156122a257600080fd5b813567ffffffffffffffff8111156122b957600080fd5b6122c584828501612182565b949350505050565b60005b838110156122e85781810151838201526020016122d0565b50506000910152565b600081518084526123098160208601602086016122cd565b601f01601f19169290920160200192915050565b60c08152600061233060c08301896122f1565b828103602084015261234281896122f1565b9050828103604084015261235681886122f1565b606084019690965250506080810192909252151560a0909101529392505050565b86815285602082015284604082015260c06060820152600061239c60c08301866122f1565b60808301949094525090151560a090910152949350505050565b86815260c0602082015260006123cf60c08301886122f1565b6040830196909652506060810193909352901515608083015260a09091015292915050565b6000806000806080858703121561240a57600080fd5b8435935060208501359250604085013567ffffffffffffffff8082111561243057600080fd5b61243c88838901612182565b9350606087013591508082111561245257600080fd5b5061245f87828801612182565b91505092959194509250565b6000806040838503121561247e57600080fd5b50508035926020909101359150565b6020808252825182820181905260009190848201906040850190845b818110156124c5578351835292840192918401916001016124a9565b50909695505050505050565b600080600080608085870312156124e757600080fd5b843567ffffffffffffffff808211156124ff57600080fd5b61250b88838901612182565b9550602091508187013594506040870135935060608701358181111561253057600080fd5b8701601f8101891361254157600080fd5b8035828111156125535761255361213b565b8060051b612562858201612151565b918252828101850191858101908c84111561257c57600080fd5b86850192505b838310156125b85782358681111561259a5760008081fd5b6125a88e8983890101612182565b8352509186019190860190612582565b999c989b5096995050505050505050565b600080604083850312156125dc57600080fd5b6125e583612239565b9150602083013580151581146125fa57600080fd5b809150509250929050565b6000806000806080858703121561261b57600080fd5b843567ffffffffffffffff8082111561263357600080fd5b61263f88838901612182565b9550602087013591508082111561265557600080fd5b61266188838901612182565b9450604087013591508082111561267757600080fd5b5061268487828801612182565b949793965093946060013593505050565b60c0815260006126a860c08301896122f1565b60208881850152876040850152861515606085015283820360808501528186518084528284019150828160051b85010183890160005b8381101561270c57601f198784030185526126fa8383516122f1565b948601949250908501906001016126de565b505080955050505050508260a0830152979650505050505050565b600181811c9082168061273b57607f821691505b60208210810361275b57634e487b7160e01b600052602260045260246000fd5b50919050565b634e487b7160e01b600052601160045260246000fd5b60008161278657612786612761565b506000190190565b600082516127a08184602087016122cd565b9190910192915050565b60208152600061227060208301846122f1565b60208082526021908201527f566f74696e6753797374656d3a20456c656374696f6e206e6f742061637469766040820152606560f81b606082015260800190565b60208082526021908201527f566f74696e6753797374656d3a20496e76616c696420656c656374696f6e20496040820152601160fa1b606082015260800190565b634e487b7160e01b600052603260045260246000fd5b600080835461286381612727565b6001828116801561287b5760018114612890576128bf565b60ff19841687528215158302870194506128bf565b8760005260208060002060005b858110156128b65781548a82015290840190820161289d565b50505082870194505b50929695505050505050565b6000600182016128dd576128dd612761565b5060010190565b601f82111561292e57600081815260208120601f850160051c8101602086101561290b5750805b601f850160051c820191505b8181101561292a57828155600101612917565b5050505b505050565b815167ffffffffffffffff81111561294d5761294d61213b565b6129618161295b8454612727565b846128e4565b602080601f831160018114612996576000841561297e5750858301515b600019600386901b1c1916600185901b17855561292a565b600085815260208120601f198616915b828110156129c5578886015182559484019460019091019084016129a6565b50858210156129e35787850151600019600388901b60f8161c191681555b5050505050600190811b01905550565b606081526000612a0660608301866122f1565b60208301949094525060400152919050565b818103818111156116985761169861276156fea264697066735822122079ca2560b4aa078292e28fe7f66788d6f69c475a8889625b460ba281265887a364736f6c63430008130033",
  "immutableReferences": {},
  "source": "// SPDX-License-Identifier: MIT\npragma solidity ^0.8.19;\n\nimport \"@openzeppelin/contracts/access/Ownable.sol\";\nimport \"@openzeppelin/contracts/security/ReentrancyGuard.sol\";\nimport \"@openzeppelin/contracts/utils/Counters.sol\";\n\n/**\n * @title SecureVotingSystem\n * @dev A secure blockchain-based voting system with biometric verification\n * @author Olawale Olatunji Bright\n */\ncontract SecureVotingSystem is Ownable, ReentrancyGuard {\n    using Counters for Counters.Counter;\n    \n    // State variables\n    Counters.Counter private _voteCounter;\n    Counters.Counter private _electionCounter;\n    \n    struct Vote {\n        bytes32 verificationHash;      // Hash of NIN + BVN + Fingerprint\n        bytes32 encryptedVote;         // Encrypted vote data\n        uint256 timestamp;             // When vote was cast\n        string pollingUnitId;          // Where vote was cast\n        uint256 electionId;            // Which election\n        bool isValid;                  // Vote validity status\n    }\n    \n    struct Election {\n        uint256 id;\n        string name;\n        uint256 startTime;\n        uint256 endTime;\n        bool isActive;\n        string[] candidates;\n        mapping(string => uint256) candidateVotes; // Candidate -> vote count\n        uint256 totalVotes;\n    }\n    \n    struct Candidate {\n        string id;\n        string name;\n        string party;\n        uint256 voteCount;\n    }\n    \n    struct PollingUnit {\n        string id;\n        string name;\n        string location;\n        uint256 totalVoters;\n        uint256 votesRecorded;\n        bool isActive;\n    }\n    \n    // Mappings\n    mapping(bytes32 => bool) public hasVoted;                    // verificationHash -> voted status\n    mapping(uint256 => Vote) public votes;                      // voteId -> Vote\n    mapping(bytes32 => uint256) public verificationHashToVoteId; // verificationHash -> voteId\n    mapping(uint256 => Election) public elections;              // electionId -> Election\n    mapping(address => bool) public authorizedTerminals;        // terminal addresses\n    mapping(string => PollingUnit) public pollingUnits;         // pollingUnitId -> PollingUnit\n    mapping(uint256 => mapping(string => uint256)) public electionResults; // electionId -> candidateId -> votes\n    \n    // Current active election\n    uint256 public currentElectionId;\n    \n    // Events\n    event VoteCast(\n        bytes32 indexed verificationHash,\n        string indexed pollingUnitId,\n        uint256 indexed electionId,\n        uint256 timestamp,\n        uint256 voteId\n    );\n    \n    event ElectionCreated(\n        uint256 indexed electionId,\n        string name,\n        uint256 startTime,\n        uint256 endTime\n    );\n    \n    event ElectionStarted(uint256 indexed electionId, uint256 timestamp);\n    event ElectionEnded(uint256 indexed electionId, uint256 timestamp);\n    \n    event TerminalAuthorized(address indexed terminal, bool status);\n    event PollingUnitRegistered(string indexed pollingUnitId, string name);\n    event VoteInvalidated(uint256 indexed voteId, string reason);\n    \n    // Modifiers\n    modifier onlyAuthorizedTerminal() {\n        require(authorizedTerminals[msg.sender], \"VotingSystem: Unauthorized terminal\");\n        _;\n    }\n    \n    modifier onlyDuringElection() {\n        require(currentElectionId > 0, \"VotingSystem: No active election\");\n        Election storage election = elections[currentElectionId];\n        require(election.isActive, \"VotingSystem: Election not active\");\n        require(\n            block.timestamp >= election.startTime && \n            block.timestamp <= election.endTime,\n            \"VotingSystem: Election not in session\"\n        );\n        _;\n    }\n    \n    modifier onlyAfterElection(uint256 _electionId) {\n        Election storage election = elections[_electionId];\n        require(\n            !election.isActive || block.timestamp > election.endTime,\n            \"VotingSystem: Election still in progress\"\n        );\n        _;\n    }\n    \n    modifier validPollingUnit(string memory _pollingUnitId) {\n        require(pollingUnits[_pollingUnitId].isActive, \"VotingSystem: Invalid polling unit\");\n        _;\n    }\n    \n    constructor() {\n        // Initialize with deployer as first authorized terminal\n        authorizedTerminals[msg.sender] = true;\n        emit TerminalAuthorized(msg.sender, true);\n    }\n    \n    // Election Management Functions\n    \n    /**\n     * @dev Create a new election\n     * @param _name Election name\n     * @param _startTime Election start timestamp\n     * @param _endTime Election end timestamp\n     * @param _candidates Array of candidate IDs\n     */\n    function createElection(\n        string memory _name,\n        uint256 _startTime,\n        uint256 _endTime,\n        string[] memory _candidates\n    ) external onlyOwner returns (uint256) {\n        require(_startTime > block.timestamp, \"VotingSystem: Start time must be in future\");\n        require(_endTime > _startTime, \"VotingSystem: End time must be after start time\");\n        require(_candidates.length > 0, \"VotingSystem: Must have candidates\");\n        \n        _electionCounter.increment();\n        uint256 electionId = _electionCounter.current();\n        \n        Election storage newElection = elections[electionId];\n        newElection.id = electionId;\n        newElection.name = _name;\n        newElection.startTime = _startTime;\n        newElection.endTime = _endTime;\n        newElection.isActive = false;\n        newElection.candidates = _candidates;\n        newElection.totalVotes = 0;\n        \n        // Initialize candidate vote counts\n        for (uint i = 0; i < _candidates.length; i++) {\n            newElection.candidateVotes[_candidates[i]] = 0;\n        }\n        \n        emit ElectionCreated(electionId, _name, _startTime, _endTime);\n        return electionId;\n    }\n    \n    /**\n     * @dev Start an election\n     * @param _electionId Election ID to start\n     */\n    function startElection(uint256 _electionId) external onlyOwner {\n        require(_electionId > 0 && _electionId <= _electionCounter.current(), \"VotingSystem: Invalid election ID\");\n        require(currentElectionId == 0, \"VotingSystem: Another election is active\");\n        \n        Election storage election = elections[_electionId];\n        require(!election.isActive, \"VotingSystem: Election already started\");\n        require(block.timestamp >= election.startTime, \"VotingSystem: Election start time not reached\");\n        require(block.timestamp < election.endTime, \"VotingSystem: Election has expired\");\n        \n        election.isActive = true;\n        currentElectionId = _electionId;\n        \n        emit ElectionStarted(_electionId, block.timestamp);\n    }\n    \n    /**\n     * @dev End the current active election\n     */\n    function endElection() external onlyOwner {\n        require(currentElectionId > 0, \"VotingSystem: No active election\");\n        \n        Election storage election = elections[currentElectionId];\n        require(election.isActive, \"VotingSystem: Election not active\");\n        \n        election.isActive = false;\n        uint256 endedElectionId = currentElectionId;\n        currentElectionId = 0;\n        \n        emit ElectionEnded(endedElectionId, block.timestamp);\n    }\n    \n    // Voting Functions\n    \n    /**\n     * @dev Cast a vote in the current election\n     * @param _verificationHash Hash combining NIN, BVN, and biometric data\n     * @param _encryptedVote Encrypted vote data\n     * @param _pollingUnitId Polling unit where vote is cast\n     * @param _candidateId ID of the candidate being voted for\n     */\n    function castVote(\n        bytes32 _verificationHash,\n        bytes32 _encryptedVote,\n        string memory _pollingUnitId,\n        string memory _candidateId\n    ) external \n        onlyAuthorizedTerminal \n        onlyDuringElection \n        validPollingUnit(_pollingUnitId)\n        nonReentrant \n        returns (uint256) {\n        \n        // Check if voter has already voted in this election\n        require(!hasVoted[_verificationHash], \"VotingSystem: Voter has already cast a vote\");\n        \n        // Validate candidate\n        Election storage election = elections[currentElectionId];\n        bool validCandidate = false;\n        for (uint i = 0; i < election.candidates.length; i++) {\n            if (keccak256(bytes(election.candidates[i])) == keccak256(bytes(_candidateId))) {\n                validCandidate = true;\n                break;\n            }\n        }\n        require(validCandidate, \"VotingSystem: Invalid candidate\");\n        \n        // Mark as voted\n        hasVoted[_verificationHash] = true;\n        \n        // Increment vote counter\n        _voteCounter.increment();\n        uint256 voteId = _voteCounter.current();\n        \n        // Store vote\n        votes[voteId] = Vote({\n            verificationHash: _verificationHash,\n            encryptedVote: _encryptedVote,\n            timestamp: block.timestamp,\n            pollingUnitId: _pollingUnitId,\n            electionId: currentElectionId,\n            isValid: true\n        });\n        \n        // Map verification hash to vote ID\n        verificationHashToVoteId[_verificationHash] = voteId;\n        \n        // Update election tallies\n        election.candidateVotes[_candidateId]++;\n        election.totalVotes++;\n        electionResults[currentElectionId][_candidateId]++;\n        \n        // Update polling unit count\n        pollingUnits[_pollingUnitId].votesRecorded++;\n        \n        // Emit event\n        emit VoteCast(_verificationHash, _pollingUnitId, currentElectionId, block.timestamp, voteId);\n        \n        return voteId;\n    }\n    \n    /**\n     * @dev Check if a voter has already voted\n     * @param _verificationHash Voter's verification hash\n     * @return bool Whether the voter has voted\n     */\n    function hasVoterVoted(bytes32 _verificationHash) external view returns (bool) {\n        return hasVoted[_verificationHash];\n    }\n    \n    // Polling Unit Management\n    \n    /**\n     * @dev Register a new polling unit\n     * @param _pollingUnitId Unique polling unit ID\n     * @param _name Polling unit name\n     * @param _location Polling unit location\n     * @param _totalVoters Expected number of voters\n     */\n    function registerPollingUnit(\n        string memory _pollingUnitId,\n        string memory _name,\n        string memory _location,\n        uint256 _totalVoters\n    ) external onlyOwner {\n        require(bytes(_pollingUnitId).length > 0, \"VotingSystem: Invalid polling unit ID\");\n        require(!pollingUnits[_pollingUnitId].isActive, \"VotingSystem: Polling unit already exists\");\n        \n        pollingUnits[_pollingUnitId] = PollingUnit({\n            id: _pollingUnitId,\n            name: _name,\n            location: _location,\n            totalVoters: _totalVoters,\n            votesRecorded: 0,\n            isActive: true\n        });\n        \n        emit PollingUnitRegistered(_pollingUnitId, _name);\n    }\n    \n    // Terminal Management\n    \n    /**\n     * @dev Authorize or deauthorize a terminal\n     * @param _terminal Terminal address\n     * @param _status Authorization status\n     */\n    function authorizeTerminal(address _terminal, bool _status) external onlyOwner {\n        require(_terminal != address(0), \"VotingSystem: Invalid terminal address\");\n        authorizedTerminals[_terminal] = _status;\n        emit TerminalAuthorized(_terminal, _status);\n    }\n    \n    /**\n     * @dev Check if a terminal is authorized\n     * @param _terminal Terminal address to check\n     * @return bool Authorization status\n     */\n    function isTerminalAuthorized(address _terminal) external view returns (bool) {\n        return authorizedTerminals[_terminal];\n    }\n    \n    // Query Functions\n    \n    /**\n     * @dev Get vote details by vote ID\n     * @param _voteId Vote ID\n     * @return verificationHash Hash of NIN + BVN + Fingerprint\n     * @return encryptedVote Encrypted vote data\n     * @return timestamp When vote was cast\n     * @return pollingUnitId Where vote was cast\n     * @return electionId Which election\n     * @return isValid Vote validity status\n     */\n    function getVoteDetails(uint256 _voteId) external view returns (\n        bytes32 verificationHash,\n        bytes32 encryptedVote,\n        uint256 timestamp,\n        string memory pollingUnitId,\n        uint256 electionId,\n        bool isValid\n    ) {\n        require(_voteId > 0 && _voteId <= _voteCounter.current(), \"VotingSystem: Invalid vote ID\");\n        Vote memory vote = votes[_voteId];\n        return (\n            vote.verificationHash,\n            vote.encryptedVote,\n            vote.timestamp,\n            vote.pollingUnitId,\n            vote.electionId,\n            vote.isValid\n        );\n    }\n    \n    /**\n     * @dev Get election details\n     * @param _electionId Election ID\n     * @return name Election name\n     * @return startTime Election start timestamp\n     * @return endTime Election end timestamp\n     * @return isActive Whether election is active\n     * @return candidates Array of candidate IDs\n     * @return totalVotes Total votes cast\n     */\n    function getElectionDetails(uint256 _electionId) external view returns (\n        string memory name,\n        uint256 startTime,\n        uint256 endTime,\n        bool isActive,\n        string[] memory candidates,\n        uint256 totalVotes\n    ) {\n        require(_electionId > 0 && _electionId <= _electionCounter.current(), \"VotingSystem: Invalid election ID\");\n        Election storage election = elections[_electionId];\n        return (\n            election.name,\n            election.startTime,\n            election.endTime,\n            election.isActive,\n            election.candidates,\n            election.totalVotes\n        );\n    }\n    \n    /**\n     * @dev Get election results\n     * @param _electionId Election ID\n     * @param _candidateId Candidate ID\n     * @return uint256 Vote count for the candidate\n     */\n    function getElectionResults(uint256 _electionId, string memory _candidateId) \n        external view returns (uint256) {\n        return electionResults[_electionId][_candidateId];\n    }\n    \n    /**\n     * @dev Get current active election ID\n     * @return uint256 Current election ID (0 if none active)\n     */\n    function getCurrentElectionId() external view returns (uint256) {\n        return currentElectionId;\n    }\n    \n    /**\n     * @dev Get total number of votes cast\n     * @return uint256 Total vote count\n     */\n    function getTotalVotes() external view returns (uint256) {\n        return _voteCounter.current();\n    }\n    \n    /**\n     * @dev Get total number of elections created\n     * @return uint256 Total election count\n     */\n    function getTotalElections() external view returns (uint256) {\n        return _electionCounter.current();\n    }\n    \n    /**\n     * @dev Get polling unit vote count\n     * @param _pollingUnitId Polling unit ID\n     * @return uint256 Number of votes recorded at the polling unit\n     */\n    function getPollingUnitVoteCount(string memory _pollingUnitId) \n        external view returns (uint256) {\n        return pollingUnits[_pollingUnitId].votesRecorded;\n    }\n    \n    // Emergency Functions\n    \n    /**\n     * @dev Emergency pause of current election\n     */\n    function emergencyPause() external onlyOwner {\n        if (currentElectionId > 0) {\n            elections[currentElectionId].isActive = false;\n        }\n    }\n    \n    /**\n     * @dev Invalidate a specific vote\n     * @param _voteId Vote ID to invalidate\n     * @param _reason Reason for invalidation\n     */\n    function invalidateVote(uint256 _voteId, string memory _reason) external onlyOwner {\n        require(_voteId > 0 && _voteId <= _voteCounter.current(), \"VotingSystem: Invalid vote ID\");\n        require(votes[_voteId].isValid, \"VotingSystem: Vote already invalid\");\n        \n        votes[_voteId].isValid = false;\n        \n        // Update election tallies if election is still active\n        Vote memory vote = votes[_voteId];\n        if (elections[vote.electionId].isActive) {\n            elections[vote.electionId].totalVotes--;\n            pollingUnits[vote.pollingUnitId].votesRecorded--;\n        }\n        \n        emit VoteInvalidated(_voteId, _reason);\n    }\n    \n    // Audit Functions\n    \n    /**\n     * @dev Get votes cast in a time range\n     * @param _startTime Start timestamp\n     * @param _endTime End timestamp\n     * @return uint256[] Array of vote IDs\n     */\n    function getVotesByTimeRange(uint256 _startTime, uint256 _endTime) \n        external view returns (uint256[] memory) {\n        require(_endTime >= _startTime, \"VotingSystem: Invalid time range\");\n        \n        uint256 totalVotes = _voteCounter.current();\n        uint256[] memory tempIds = new uint256[](totalVotes);\n        uint256 count = 0;\n        \n        for (uint256 i = 1; i <= totalVotes; i++) {\n            if (votes[i].timestamp >= _startTime && votes[i].timestamp <= _endTime) {\n                tempIds[count] = i;\n                count++;\n            }\n        }\n        \n        // Create properly sized array\n        uint256[] memory voteIds = new uint256[](count);\n        for (uint256 i = 0; i < count; i++) {\n            voteIds[i] = tempIds[i];\n        }\n        \n        return voteIds;\n    }\n    \n    /**\n     * @dev Get comprehensive election statistics\n     * @param _electionId Election ID\n     * @return totalVotes Total votes cast\n     * @return validVotes Number of valid votes\n     * @return invalidVotes Number of invalid votes\n     * @return duration Election duration in seconds\n     * @return isCompleted Whether election is completed\n     */\n    function getElectionStatistics(uint256 _electionId) external view returns (\n        uint256 totalVotes,\n        uint256 validVotes,\n        uint256 invalidVotes,\n        uint256 duration,\n        bool isCompleted\n    ) {\n        require(_electionId > 0 && _electionId <= _electionCounter.current(), \"VotingSystem: Invalid election ID\");\n        \n        Election storage election = elections[_electionId];\n        uint256 total = election.totalVotes;\n        uint256 valid = 0;\n        uint256 invalid = 0;\n        \n        // Count valid vs invalid votes for this election\n        for (uint256 i = 1; i <= _voteCounter.current(); i++) {\n            if (votes[i].electionId == _electionId) {\n                if (votes[i].isValid) {\n                    valid++;\n                } else {\n                    invalid++;\n                }\n            }\n        }\n        \n        uint256 electionDuration = election.endTime - election.startTime;\n        bool completed = !election.isActive && block.timestamp > election.endTime;\n        \n        return (total, valid, invalid, electionDuration, completed);\n    }\n}\n",
  "sourcePath": "/Users/bright/Documents/School/Project/Decentralized-Voting-Project/voting-system/contracts/SecureVotingSystem.sol",
  "compiler": {
    "name": "solc",
    "version": "0.8.19+commit.7dd6d404.Emscripten.clang"
  },
  "schemaVersion": "3.4.16",
  "updatedAt": "2025-06-23T13:37:24.647Z",
  "networkType": "ethereum",
  "devdoc": {
    "author": "Olawale Olatunji Bright",
    "details": "A secure blockchain-based voting system with biometric verification",
    "kind": "dev",
    "methods": {
      "authorizeTerminal(address,bool)": {
        "details": "Authorize or deauthorize a terminal",
        "params": {
          "_status": "Authorization status",
          "_terminal": "Terminal address"
        }
      },
      "castVote(bytes32,bytes32,string,string)": {
        "details": "Cast a vote in the current election",
        "params": {
          "_candidateId": "ID of the candidate being voted for",
          "_encryptedVote": "Encrypted vote data",
          "_pollingUnitId": "Polling unit where vote is cast",
          "_verificationHash": "Hash combining NIN, BVN, and biometric data"
        }
      },
      "createElection(string,uint256,uint256,string[])": {
        "details": "Create a new election",
        "params": {
          "_candidates": "Array of candidate IDs",
          "_endTime": "Election end timestamp",
          "_name": "Election name",
          "_startTime": "Election start timestamp"
        }
      },
      "emergencyPause()": {
        "details": "Emergency pause of current election"
      },
      "endElection()": {
        "details": "End the current active election"
      },
      "getCurrentElectionId()": {
        "details": "Get current active election ID",
        "returns": {
          "_0": "uint256 Current election ID (0 if none active)"
        }
      },
      "getElectionDetails(uint256)": {
        "details": "Get election details",
        "params": {
          "_electionId": "Election ID"
        },
        "returns": {
          "candidates": "Array of candidate IDs",
          "endTime": "Election end timestamp",
          "isActive": "Whether election is active",
          "name": "Election name",
          "startTime": "Election start timestamp",
          "totalVotes": "Total votes cast"
        }
      },
      "getElectionResults(uint256,string)": {
        "details": "Get election results",
        "params": {
          "_candidateId": "Candidate ID",
          "_electionId": "Election ID"
        },
        "returns": {
          "_0": "uint256 Vote count for the candidate"
        }
      },
      "getElectionStatistics(uint256)": {
        "details": "Get comprehensive election statistics",
        "params": {
          "_electionId": "Election ID"
        },
        "returns": {
          "duration": "Election duration in seconds",
          "invalidVotes": "Number of invalid votes",
          "isCompleted": "Whether election is completed",
          "totalVotes": "Total votes cast",
          "validVotes": "Number of valid votes"
        }
      },
      "getPollingUnitVoteCount(string)": {
        "details": "Get polling unit vote count",
        "params": {
          "_pollingUnitId": "Polling unit ID"
        },
        "returns": {
          "_0": "uint256 Number of votes recorded at the polling unit"
        }
      },
      "getTotalElections()": {
        "details": "Get total number of elections created",
        "returns": {
          "_0": "uint256 Total election count"
        }
      },
      "getTotalVotes()": {
        "details": "Get total number of votes cast",
        "returns": {
          "_0": "uint256 Total vote count"
        }
      },
      "getVoteDetails(uint256)": {
        "details": "Get vote details by vote ID",
        "params": {
          "_voteId": "Vote ID"
        },
        "returns": {
          "electionId": "Which election",
          "encryptedVote": "Encrypted vote data",
          "isValid": "Vote validity status",
          "pollingUnitId": "Where vote was cast",
          "timestamp": "When vote was cast",
          "verificationHash": "Hash of NIN + BVN + Fingerprint"
        }
      },
      "getVotesByTimeRange(uint256,uint256)": {
        "details": "Get votes cast in a time range",
        "params": {
          "_endTime": "End timestamp",
          "_startTime": "Start timestamp"
        },
        "returns": {
          "_0": "uint256[] Array of vote IDs"
        }
      },
      "hasVoterVoted(bytes32)": {
        "details": "Check if a voter has already voted",
        "params": {
          "_verificationHash": "Voter's verification hash"
        },
        "returns": {
          "_0": "bool Whether the voter has voted"
        }
      },
      "invalidateVote(uint256,string)": {
        "details": "Invalidate a specific vote",
        "params": {
          "_reason": "Reason for invalidation",
          "_voteId": "Vote ID to invalidate"
        }
      },
      "isTerminalAuthorized(address)": {
        "details": "Check if a terminal is authorized",
        "params": {
          "_terminal": "Terminal address to check"
        },
        "returns": {
          "_0": "bool Authorization status"
        }
      },
      "owner()": {
        "details": "Returns the address of the current owner."
      },
      "registerPollingUnit(string,string,string,uint256)": {
        "details": "Register a new polling unit",
        "params": {
          "_location": "Polling unit location",
          "_name": "Polling unit name",
          "_pollingUnitId": "Unique polling unit ID",
          "_totalVoters": "Expected number of voters"
        }
      },
      "renounceOwnership()": {
        "details": "Leaves the contract without owner. It will not be possible to call `onlyOwner` functions. Can only be called by the current owner. NOTE: Renouncing ownership will leave the contract without an owner, thereby disabling any functionality that is only available to the owner."
      },
      "startElection(uint256)": {
        "details": "Start an election",
        "params": {
          "_electionId": "Election ID to start"
        }
      },
      "transferOwnership(address)": {
        "details": "Transfers ownership of the contract to a new account (`newOwner`). Can only be called by the current owner."
      }
    },
    "title": "SecureVotingSystem",
    "version": 1
  },
  "userdoc": {
    "kind": "user",
    "methods": {},
    "version": 1
  }
}